:10000000B8220020F9030000F5030000F50300000A
:1000100000000000000000000000000000000000E0
:10002000000000000000000000000000F5030000D8
:100030000000000000000000F5030000F5030000D0
:10004000F5030000F5030000F5030000F5030000D0
:10005000F5030000F5030000F5030000F5030000C0
:10006000F5030000F5030000F5030000F5030000B0
:10007000F5030000F5030000F5030000F5030000A0
:10008000F5030000F5030000F5030000F503000090
:10009000F5030000F5030000F5030000F503000080
:1000A000F5030000F5030000F50300000000000068
:1000B0000000000010B5064C2378002B07D1054B3B
:1000C000002B02D0044800E000BF0123237010BDC4
:1000D0004C0000200000000090180000044B10B5F8
:1000E000002B03D00349044800E000BF10BDC04608
:1000F000000000005000002090180000F0B51E0025
:100100000F00150085B00AAB1B7802900393009393
:10011000064C33001830A047039B2A000093390097
:1001200033000298024CA04705B0F0BD0502000064
:10013000750300001FB5082402941834019460343C
:100140000094014CA0471FBD01030000F7B50F004C
:1001500015001E000190054C1830A04733002A00FE
:1001600039000198024CA047F7BDC04625020000A7
:100170009902000010B5024B1830984710BDC046D8
:100180003302000013B504AC24780094014CA0475E
:1001900013BDC046BF020000F0B50500040087B0E3
:1001A00003930CAB1B780C3504930DAB1B780F003D
:1001B00005930F4B290002920093802220230D4EBD
:1001C000B047059B039A029900932800049B0A4DAF
:1001D000A8472000390020238022084D1830A84766
:1001E000200004228021064B9847200007B0F0BD74
:1001F000000000208D020000A90D00006D0200002B
:10020000AD03000030B5057903AC6A43D218C3686A
:1002100024789A180023C85CD0540133D8B28442A1
:10022000F9D130BD10B50479C068614380184354DA
:1002300010BD03795943C3689B18585C7047000090
:100240001FB5082402944479019404790094014C68
:10025000A0471FBD0103000013B504AC247800942F
:10026000014CA04713BDC046BF02000073B5040097
:100270000D000449044E00910021B0472000E560C4
:1002800076BDC046140000208D0200004371009B23
:10029000016002718360704770B5040016001D0094
:1002A000006843689B689847206831004368DB68B2
:1002B00098472068290043681B68984770BDF7B5C8
:1002C000019308AB1F78836804001B680D001600BB
:1002D00098470300012F06D0022F0ED0002F05D122
:1002E000019A934301E0019A1343DBB2A26829000B
:1002F000576820003200B847F7BD019A5340F4E731
:10030000F7B5009308AB14001A780F0009AB0AA9DF
:1003100005001B780978BA4221D9A3421FD9144B92
:1003200020009847C6B2F200A21A01249440E3B21A
:100330000193AB683A001B68310028009847009A87
:100340000300012A0CD0022A0ED0002A01D1A343B7
:10035000DBB2AA683100546828003A00A047F7BD14
:10036000019A02431300F3E7019A4240FAE7C046BC
:100370009D130000F8B506001F00006806AB1D784D
:1003800043680C009B681100984730683900436847
:100390006519DB689847EDB230682178436801340D
:1003A0001B689847E3B29D42F6D1F8BDF0B5040052
:1003B000006885B002910392002803D043680021B1
:1003C0001B6998470026F3B20193039B9E420FD00E
:1003D000002507E0A36820005B6801991F00002347
:1003E000B8470135029BEAB29D42F3D10136EAE7F4
:1003F00005B0F0BDFEE700002549264870B58142F2
:100400000AD0254BC41E0022A34203D303331A1A79
:1004100092089200214B98472148224BC11E00228E
:10042000994203D803331A1A9208920000211E4BF6
:100430009847FF221D4B032193431D4A0C259360CF
:100440000222082430261B4B1B485A62C3788B4378
:100450001343C370C378AB432343C370174B987BDC
:10046000B0430600202030439873987BA843044390
:100470009C73987B884302439A738023104A516887
:100480000B4353600F4B98470F4B9847FEE7C0460E
:1004900090180000000000204C000020FD14000017
:1004A0004C000020B40200200F15000000000000E6
:1004B00000ED00E0FC7000410050004100480041A8
:1004C00000400041B5140000550B00000E4B186AA7
:1004D000196A890F8A070D4901400A430C490A43EA
:1004E0001A62022299690A431F219A611A7F0A40FF
:1004F0001A771E39DA68D2080A42FBD08022196ABC
:100500000A431A627047C046000800400000FF0F0F
:10051000020300000221024A93698B4393617047F2
:100520000008004070B504000D00002802D008004B
:10053000431E984109490A4B402298472900094B1C
:100540006560201D9847002806DB0020064BA3822B
:10055000064B2361064BE36070BDC0461E150000CC
:10056000D70A00009D1000000080FFFF1506000064
:10057000DD05000010B50400431E984157220449D0
:10058000044BC0B29847044B201D984710BDC0468D
:100590001E150000D70A00002D12000030B504001F
:1005A0000D0087B0002802D00800431E9841B322F6
:1005B0000749084B98472B68201D03936B6803A9D4
:1005C0000493AB6801930593034B984707B030BD84
:1005D0001E150000D70A0000591200007FB5040064
:1005E000431E98410E0015000749A322074BC0B2D5
:1005F000984700232000029301A9054B0C3801966F
:100600000395984704B070BD1E150000D70A00007E
:100610009D0500007FB50400431E98410E001500A3
:1006200007498722074BC0B2984700232000019357
:1006300001A9054B0C3802960395984704B070BD8C
:100640001E150000D70A00009D05000001607047DC
:10065000F0B500268BB0109D0590069207932B7A7B
:1006600001966A7A0C0000920699079A0068294F51
:10067000B8472B782849B34246D1284BF5220120B0
:1006800098472B7AD9085B0700D001316B7A039326
:10069000AB7AE41A039B5C434C436B68A4B21B190E
:1006A0000493039B029300263400039A079B9B1834
:1006B000029A9B1ADBB209932B7A0893069B1919AD
:1006C000089BC9B2A34207D1029F013FFBB202932C
:1006D000002BE8D10BB0F0BD07231C4203D1049BD3
:1006E0001E780133049373B2002B08DA059B099A34
:1006F0001B6818688368DB681F000123B847760011
:100700000134F6B2E4B2D9E744223000034B9847F3
:10071000E0E7C046850900003A150000D70A00004E
:10072000F0B585B0039008001E00431E9841164F97
:10073000164D0292C0B253220C003900A8470A9805
:100740005422431E98413900C0B2A847029D217827
:100750000A290BD10A9B029D5B7A0133F618F6B287
:1007600063780134002BF2D105B0F0BD0D29F7D02C
:100770000A9B2A00009303983300054FB8470A9B51
:100780001B7AED18EDB2EBE73A150000D70A00002E
:100790005106000001607047F0B51C0085B00AAB3F
:1007A000019119780368050001981B790019984296
:1007B00002DD01981C1AE4B2002C61D0D708FB00BE
:1007C000D21A0123934002936B461B7A03930129AB
:1007D0003BD002291DD0002952D1013CE4B2019B3B
:1007E00028681E198368F6B2320039001B689847E2
:1007F0000300029A286893438268013C52683900DA
:100800009446DBB23200E4B26646B047FF2CE6D134
:1008100036E0013CE4B2019B28681E198368F6B2F9
:10082000320039001B6898470300039A2868534038
:100830008268013C526839009446DBB23200E4B26F
:100840006646B047FF2CE6D11AE0013CE4B2019BBA
:1008500028681E198368F6B2320039001B68984771
:100860000300039A286813438268013C52683900E8
:100870009446DBB23200E4B26646B047FF2CE6D1C4
:1008800005B0F0BDF0B587B00D000CA90978059052
:100890000391002B0AD0511E00685918C9B287680D
:1008A0008A4205D12900FC68039BA04707B0F0BD30
:1008B0004379013B994200DBD9B2CB08049307236B
:1008C0009C46D408130062461340F83216009E403E
:1008D000F3B266468E433241D6B2049A3F699442DF
:1008E00006D1039A210000922A003340B847DDE781
:1008F000039A009221002A00B847059B013418682A
:10090000E4B283681F69049BA34205D8039B2A00B5
:10091000009304993300E9E7039B0093FF23E9E781
:10092000F0B5160005000C0087B004930CAB1B78E3
:10093000124F05930DAB1B7803930093049BB847AC
:10094000059B21005A1E039BB21828000093D2B2C7
:10095000049BB847039B320021002800084F0093F6
:10096000059BB8470499039B013961180093320035
:100970002800059BC9B2B84707B0F0BD9907000031
:1009800085080000F0B587B01E000CAB1C780DABDD
:100990001B780700039104920593002C0FD0013CB3
:1009A000E4B2049B38001A19059B013C009303999B
:1009B0003300044DD2B2E4B2A847FF2CF1D107B006
:1009C000F0BDC04699070000044B10B51C68044BED
:1009D00098470100034B2000984710BD6800002095
:1009E000B90A0000D10A0000C023DB051A0073B564
:1009F000082488321460194AC02511001848A8310B
:100A00002D0608600D60802080210004C9059860D3
:100A100091621449144E9162802189019960966215
:100A200095621A0098321460986199610D230F4CF9
:100A300001930A330E4A009320000E490E4D0C33E9
:100A4000A84725002835210028000C4B9847200096
:100A500029000B4B2C30984773BDC0460044004121
:100A600008000040800000C0002000406C00002012
:100A7000A80200209C0000209901000095070000BA
:100A80004D060000074B10B55A685A60064B984750
:100A9000064B98470820064CA047064B9847F7207E
:100AA000A04710BD00400041E10A0000CD04000055
:100AB000010B00001505000064239621584310B572
:100AC0002C30024BFF304900984710BD9D130000A9
:100AD0000139FDD87047002800D100BE70470000E2
:100AE000064B1A7AD2B21A725A7AD2B25A729A7AD9
:100AF000D2B29A72DA7AD2B2DA7270470004004047
:100B0000C30706D58022034B52009A60832252020B
:100B10005A607047000C004037B50B4B050001A828
:100B20009847C022094BD20514681B6A10695840C7
:100B300004405C4001A8064B98470120A8400440AF
:100B4000631E9C41E0B23EBD8113000000440041A1
:100B50008F130000F0B5364B93B09847354C1022F8
:100B600035490EA8A0470A22344905A8A0470A2201
:100B7000334908A8A0470A2232490BA8A0473248A7
:100B8000324B9847324B98470123002201931F3381
:100B900011003048304C00936033A0472F4B304C4D
:100BA000009314220C232F480EA9A0470C251424CF
:100BB0002D4F1620B84706000620B84702900720A0
:100BC000B8470390002E0FD1264F244B2200380047
:100BD00026490093224E2B00B047204B2200009361
:100BE00038002B0005A9B047029B002B0DD11B4FED
:100BF0002B0022001D491B48194E0097B0472B00BF
:100C000022001848009708A9B047039B002BCFD1BA
:100C1000124F2B00220015491248114E0097B04781
:100C20002B0022000F4800970BA9B047C0E7C04631
:100C30006D130000FD140000681500007815000019
:100C4000821500008C1500009C0200207505000034
:100C5000E909000094000020210900003C00002068
:100C60002107000098000020190B00005615000015
:100C700000207047F7B56A460B0006000124D371C7
:100C8000B37AD11D1F251A0027002A4097403A0049
:100C9000C0275B09FF05DB01DB1900689A61337A25
:100CA00027001A002A4097403A00C0275B09FF0539
:100CB000DB01DB195A61220003689847337A1D4033
:100CC000AC405B09DB01DB199C61F7BDF7B56A46F7
:100CD0000B0006000124D371B37AD11D1F251A0021
:100CE00027002A4097403A00C0275B09FF05DB0137
:100CF000DB1900685A61337A27001A002A409740AE
:100D00003A00C0275B09FF05DB01DB195A612200AD
:100D100003689847337A1D40AC405B09DB01DB195F
:100D20009C61F7BD072310B51940A9331943014B46
:100D3000984710BDCD0C000070B54B060C0010217B
:100D40005B0F044E19430500B0470F2128002140D6
:100D5000B04770BDCD0C00003F230B40402110B5C3
:100D60001943014B984710BDCD0C000010B50A2166
:100D7000407A014B984710BD4113000010B5AF21D8
:100D8000014B984710BDC046CD0C000070B5050062
:100D90000C00044E8121B04728002100B0472000FC
:100DA00070BDC046CD0C0000F8B5040016001D0053
:100DB00006AB1F78254A264B9847264B2000267203
:100DC0006572A7729847244D2000A821A8472000EB
:100DD0001F21A8472000D321A84720000021A847B1
:100DE00020004021A8472000A121A8472000C821B9
:100DF000A8472000DA21A84720000221A847174B66
:100E00008F21200098472000A421A8472000A62178
:100E1000A8472000D521A84720008021A84720000E
:100E20008D21A84720001421A8472000DB21A847D6
:100E300020004021A8472000D921A847F121200007
:100E4000A8472000064B98472000F8BD2800002046
:100E5000391300006D0D0000CD0C00008D0D000059
:100E60007D0D00001F22012302409340C022400953
:100E7000C001D20530B582189DB21C0C022909D0E0
:100E80005360094B094AC0182A43094B8262234325
:100E9000836230BD9360044B8022C018C023D2050A
:100EA0002A4382621B06F2E7004400410000024030
:100EB000000002C01F2270B50240C4B24009C00148
:100EC0004B1C07D110180122104BC0180378934314
:100ED000037070BD01250E4BC9B2C0188618EA40D8
:100EE000403633788018AB432B43337030300F22B9
:100EF00003782C4205D0134009011943C9B201708F
:100F0000E7E7934311401943F9E7C04640440041E5
:100F10000044004170B501210F4D2220A847042153
:100F20000E4A0F4C137822208B4313700D49A047B3
:100F300080230D4EDB03336002213620A847362084
:100F40000A49A04780231B04336002213720A847A9
:100F500037200749A04770BD650E0000C24400411C
:100F6000B50E00000300220094000060030036006C
:100F7000030037008023044A116A0B431362034BBA
:100F8000034A5A807047C04600040040000C0040ED
:100F90001940000010B5044B98470449044B05481C
:100FA0009847054B984710BD750F0000001C004284
:100FB000250500009C020020150F0000F8B5244B09
:100FC0009847C02480230127E4051B04214D7F425C
:100FD000636102211720A8471F4E39001720B04730
:100FE0002300082294331A6002212320A8473900E5
:100FF0002320B04780239B01636102210D20A84775
:1010000039000D20B04701211620A84701210620F4
:10101000A84701210720A847104B80201D0004226B
:10102000C003606056352978103D11432974A061D2
:101030004020606029784733114329708021A061E6
:101040006160187802431A70054BA1619847F8BD9A
:10105000850A0000650E0000B50E00000044004146
:10106000950F00000323C2691A42FCD102220368D3
:10107000934303607047C369DB070BD40322C16944
:101080000B0013401142FAD1022201680A430260A8
:101090001800704704204042FBE70000574BF7B5AB
:1010A000CB189B0ADBB206000D000024052B01D1F2
:1010B000534C1834301E02D02800431E984101279B
:1010C000504A5149514B38409847002C00D191E08B
:1010D000EB693B4215D1627821781202A378114363
:1010E000E2781B040B4312061A432B68FF19019286
:1010F0003B4251D11C22019B13401A000123134390
:101100002B600123EA691A42FCD11C222378404F4C
:1011100035601340082B46D13E4A3B493B4B0120EA
:10112000984761782378A27809021943E37812047A
:1011300011431B060B431F402F6061792379A2796D
:1011400009021943E379120411431B06324A0B4387
:101150001340324A13436B60617A237AA27A090200
:101160001943E37A120411431B060B436B622B00F5
:10117000627B30331A70EB69002BFCD10722237994
:10118000002013405A1E934101333371E37BA27B4D
:101190001B021343F380FEBD2800214B9847EB69E7
:1011A0003B42FCD1A6E71F4A1749184B012098473C
:1011B00061782378A27809021943E3781204114375
:1011C0001B060B431F402F6061792379A279090226
:1011D0001943E379120411431B06134A0B431340CE
:1011E0008022920213436B60237B2B73637B303529
:1011F0002B70C3E70D204042CDE7C04600F8FFBD8D
:10120000B41500002509000096150000D70A00005B
:10121000FCFEFFFF03090000BFDDFDFF40020200EE
:1012200065100000EF080000BF1DFDFF10B5041E93
:1012300002D00068431E9841982204491201044BD1
:1012400098472068034B984710BDC046961500008C
:10125000D70A000077100000F0B5046885B001904F
:10126000037920000293431E98410E684D682F4B6E
:101270000F002F4A2F49C0B29847E3695B074FD14F
:101280000323E269100018401A42FAD123689B0731
:1012900049D50200237ED9B2039104210B4213D118
:1012A00090421AD801230399194216D0019BDB887A
:1012B000002E06D033789C46029B012B1CD8634637
:1012C00001360130A36208E0A36A002D04D0029920
:1012D0002B7001290CD8013501326B460C2159566F
:1012E00000290FDBBB688342D4D89342D2D810E0E8
:1012F0001B0A6B700235EFE76146737802361B02FA
:101300000B43DEE7012313205B42638381332376A3
:1013100040420323227E1A42FCD0237605B0F0BD62
:1013200004204042FAE71420FBE7C046D70A000039
:10133000850A0000961500000160426070470000B9
:10134000F8B51F23012503409D40C0234409DB0558
:10135000E4018EB2E4183000034F6561B8473000F5
:10136000A561B847F8BDC046C909000010B5024BD9
:101370009847024B984710BDBD0F0000E9090000D7
:10138000EFF31083036072B6BFF35F8F7047BFF354
:101390005F8F036883F310887047000000224308C2
:1013A0008B4274D303098B425FD3030A8B4244D32D
:1013B000030B8B4228D3030C8B420DD3FF2209026F
:1013C00012BA030C8B4202D31212090265D0030B2E
:1013D0008B4219D300E0090AC30B8B4201D3CB0324
:1013E000C01A5241830B8B4201D38B03C01A524166
:1013F000430B8B4201D34B03C01A5241030B8B4268
:1014000001D30B03C01A5241C30A8B4201D3CB0252
:10141000C01A5241830A8B4201D38B02C01A524137
:10142000430A8B4201D34B02C01A5241030A8B423A
:1014300001D30B02C01A5241CDD2C3098B4201D352
:10144000CB01C01A524183098B4201D38B01C01AD0
:10145000524143098B4201D34B01C01A5241030947
:101460008B4201D30B01C01A5241C3088B4201D3F6
:10147000CB00C01A524183088B4201D38B00C01AA3
:10148000524143088B4201D34B00C01A5241411ACA
:1014900000D20146524110467047FFE701B50020D7
:1014A00000F006F802BDC0460029F7D076E7704785
:1014B0007047C04670B500260C4D0D4C641BA4103F
:1014C000A64209D1002600F0D3F90A4D0A4C641B4C
:1014D000A410A64205D170BDB300EB589847013661
:1014E000EEE7B300EB5898470136F2E77C180000AE
:1014F0007C1800007C18000080180000002310B544
:101500009A4200D110BDCC5CC4540133F8E703000B
:101510008218934200D1704719700133F9E72E2EDB
:101520002F68616C2F7372632F68616C5F737069D1
:101530005F6D5F73796E632E63002E2E2F67667862
:101540005F6D6F6E6F2F6766785F6D6F6E6F5F7424
:101550006578742E63002020202020202020202069
:10156000202020202020200053656A612062656DC4
:101570002076696E646F210053656E736F7220313F
:10158000210053656E736F722032210053656E73B4
:101590006F72203321002E2E2F68706C2F736572AE
:1015A000636F6D2F68706C5F736572636F6D2E6310
:1015B000000000000000000000000000000000002B
:1015C0000000000000000000000000000C0001000E
:1015D00000000200000000000900FF0105000000FB
:1015E000000000002020202020002050505000004B
:1015F00000005050F850F850502078A07028F0208B
:10160000C0C810204098186090A040A89068602042
:1016100040000000001020404040201040201010EA
:10162000102040005020F8205000002020F82020FA
:101630000000000000602040000000F800000000F2
:101640000000000060600008102040800070889852
:10165000A8C8887020602020202070708808102082
:1016600040F8F810201008887010305090F81010D2
:10167000F880F008088870304080F0888870F8089A
:101680001020404040708888708888707088887802
:101690000810600060600060600000606000602012
:1016A00040081020402010080000F800F8000080DA
:1016B000402010204080708808102000207088088A
:1016C00068A8A87070888888F88888F08888F0886A
:1016D00088F070888080808870E09088888890E0AA
:1016E000F88080F08080F8F88080E08080807088CA
:1016F0008080988870888888F88888887020202062
:10170000202070381010101090608890A0C0A09019
:1017100088808080808080F888D8A8888888888899
:1017200088C8A898888870888888888870F0888891
:10173000F080808070888888A89068F08888F0A001
:101740009088788080700808F0F8202020202020E1
:1017500088888888888870888888888850208888C1
:1017600088A8A8D8888888502050888888885020E1
:10177000202020F80810204080F838202020202049
:101780003800804020100800E02020202020E020A9
:10179000508800000000000000000000F840201009
:1017A00000000000000070087888788080B0C88849
:1017B00088F00000708080887008086898888878B1
:1017C00000007088F88070304840E04040400000E1
:1017D00078887808308080B0C888888820006020A9
:1017E0002020701000301010906040404850605031
:1017F00048602020202020700000D0A8A888880001
:1018000000B0C8888888000070888888700000F060
:1018100088F08080000068987808080000B0C880D0
:101820008080000070807008F04040E04040483008
:101830000000888888986800008888885020000008
:101840008888A8A850000088502050880000888808
:101850007808700000F8102040F810202040202068
:101860001020202020202020402020102020400078
:10187000F8B5C046F8BC08BC9E467047DD000000C5
:10188000F8B5C046F8BC08BC9E467047B5000000DD
:10189000750100004D010000FD0000003501000051
:1018A000850100003302000025020000050200004F
:1018B0004102000059020000750C0000710C00008C
:1018C000250D0000390D0000590D0000000000003A
:0C18D000DD1500000607207D0800000068
:00000001FF
